:10000000C8EF11F0F76A140FF66E000EF722090020
:10001000F5501200280C0106F76A280FF66E000E44
:10002000F7220900F5501200444F205245204D4957
:1000300020464100F76A440FF66E000EF7220900D1
:10004000F5501200415341204252414E43410000BD
:10005000F76A600FF66E000EF7220900F5501200E5
:10006000494E4449414E41204A4F4E455300F76A9C
:100070007E0FF66E000EF7220900F550120053595C
:100080004D50484F4E59204E6F2E20390000F76AD0
:100090009E0FF66E000EF7220900F5501200455231
:1000A000524F5500F76AB40FF66E000EF7220900A2
:1000B000F550120050455353494D4F00F76ACC0F8D
:1000C000F66E000EF7220900F55012005255494D08
:1000D0000000F76AE20FF66E000EF7220900F550F5
:1000E0001200524547554C415200F76AFA0FF66E1E
:1000F000000EF7220900F5501200424F4D00F76A3A
:100100000E0FF66E010EF7220900F5501200504551
:1001100052464549544F212100002020434152526C
:100120004547414E444F2E2E0000202020332E2ED6
:100130000000322E2E00312E2E00202020202020E4
:100140005641492121004E6F746150726573733AB4
:1001500020257520202020000C41636572746F7388
:100160003A20256C752F25750000506572632E545A
:100170006F74616C3A202025752525000C5245438B
:100180004F5244204154494E4749444F210A257556
:1001900020434F4C4F4341444F00202020204D55D9
:1001A00053494341533A00002020202020202020A2
:1001B000202020202020202000002020202020207F
:1001C000202020202020202020200000202020206F
:1001D000202020202020202020202020000020205F
:1001E000202020202020202020202020202000004F
:1001F00025752E257320202020202020202020203F
:100200000000506F6E74756163616F3A202575252B
:100210002500204D454E55205052494E43495041EE
:100220004C200000202020202020202020202020E2
:1002300020202020000020202020202020202020FE
:10024000202020202020000048415250204C4153C3
:100250004552204D5553494300002B2D2B504C4106
:10026000592047414D45212B2D2B0000020EEA6EEF
:100270000F0EE96EEF500DE0060E016E006A002EC3
:10028000FED7012EFBD77B0E006E002EFED7EF2E81
:10029000F3D71200020116B102D08C9801D08C88DD
:1002A000959816B302D08C9A01D08C8A959A16B57F
:1002B00002D08C9C01D08C8C959C16B702D08C9E61
:1002C00001D08C8E959E00008C829592020E006E5D
:1002D000002EFED700D000008C92959200011200F3
:1002E0000201176B9588000E83B8010E1713958ACB
:1002F000000E83BA010E006ED8900036005017131E
:10030000958C000E83BC010E006E00360036FC0E8C
:10031000001600501713958E000E83BE010E006E5E
:10032000003600360036F80E00160050171317C2BC
:1003300001F0000112009588958A958C958E8C8429
:10034000959400008C8295920000CADF01C016F2DD
:100350008C92959200008C82959200D000D0000083
:10036000BFDF01C015F28C9295929598959A959C55
:10037000959E02011639006EF00E00160050151100
:10038000016E0001CAEF01F09592959695948C96B6
:100390009596D1D701C015F2020101AE02D000013D
:1003A000F8D7135302E18C9601D08C869596000005
:1003B0008C94959400008C9295921439156F0F0EC1
:1003C000151715C216F2000165DF020114510F0B5B
:1003D000156F166F00015EDF12009598959A959C37
:1003E000959E9592959695948C9695968C949594C9
:1003F0008C9295920F0E02010F6F000137DF010EF4
:100400004E6E4E5003080CE3030E0201166F0001FE
:1004100041DF050E02010F6F000128DF4E2AF1D7E0
:10042000020E0201166F000135DF050E02010F6F8B
:1004300000011CDF4E6A4E50030810E3036A4E5061
:10044000F2CF4FF0F29EDEDD4FBEF28E4F6E020114
:10045000136B146F000198DF4E2AEDD71AEF13F0DB
:100460000201102D01D003D0400E116F01D0116B8D
:10047000010E0F5D112711518009126F136B146F5C
:10048000000182DF120002010E51070A000107E09D
:100490000B0A0CE0060A16E0020A1CE022D0010E4C
:1004A00002010F6F106F0001DBDF22D00201136B1E
:1004B000010E146F000168DF020E02010F6F0001D0
:1004C000D5DE16D0010E02010F6F020E106F000173
:1004D000C7DF0ED00201136B100E146F000154DF42
:1004E00007D0010E0201136F0EC214F200014CDF9F
:1004F00012000900F5520CE0F6CF5FF0F7CF60F084
:10050000F5CF0EF2C0DF5FC0F6FF60C0F7FFF1D796
:1005100012004E6A4E50040820E30C0E02010E6FCA
:100520000001B1DFFA0E02010F6F00019FDE010E24
:1005300002010F6F106F000193DF480EF66E020E7E
:10054000F76ED7DF020E4F6EAF0E02010F6F000184
:100550008DDE4F2EF9D74E2ADDD7010E02010F6F27
:10056000020E106F00017CDF5A0EF66E020EF76E5F
:10057000C0DF080E4F6EFA0E02010F6F000176DE2B
:100580004F2EF9D71CEF13F002010F51016A0E5DD7
:1005900003E20EC200F00CD0006A080E106F0E3796
:1005A00000360F51005CD8B0006E0136102FF7D71F
:1005B0000001120001500CC20EF2640E02010F6F16
:1005C0000001E2DF00C00CF20150300E08E1020130
:1005D0000DA30FD00DB70DD00DB9200E04D0020120
:1005E0000D970D990D81012601C00EF200014BDF20
:1005F00002010CC20EF20A0E0F6F0001C5DF00C02F
:100600000CF20150300E08E102010DB70AD00DA125
:1006100008D00DB9200E0001012601C00EF233DF13
:100620000201300E0C270CC20EF200012CDF12006A
:10063000EF520FE0EACF0DF2E9CF0CF2EFCF0EF25E
:1006400022DF0DC2EAFF0CC2E9FFE92AD8B4EA2A88
:10065000EFD712004D0E4E6E550E4F6E530E506E6C
:10066000490E516E430E526E410E536E530E546E30
:10067000556A520E566E450E576E430E586E4F0E0B
:10068000596E520E5A6E440E5B6E530E5C6E5D6A6E
:10069000010E5E6E0C0E02010E6F0001F4DE010E03
:1006A00002010F6F106F0001DBDE120EF66E020EFC
:1006B000F76E1FDF4AA06CD0EC0E966E84A401D0BA
:1006C0004A88958083A001D04A86948C82AC01D060
:1006D0004A82EC0E966E84B415D04AA813D04A987C
:1006E0005E2C03D0020E5E6E01D05E06010E02018A
:1006F0000F6F020E106F0001B3DE240EF66E020EB5
:10070000F76EF7DE958083B016D04AA614D05E50FF
:10071000020803E1010E5E6E01D05E2A010E0201A5
:100720000F6F020E106F00019BDE360EF66E020E8A
:10073000F76EDFDE4A96010E02010F6F020E106F98
:1007400000018EDE010E5E5C080DF350036A4E0F51
:10075000016E000E032201C05FF003C060F05EC0B6
:100760000CF21B0E02010D6F000124DF2E0E0201A0
:100770000E6F000188DE60C0EAFF5FC0E9FF58DF4E
:10078000948C82BC04D04AA202D04A924A9092D75A
:100790005E2C04D0010E016E03D002D0020E016E59
:1007A0001EEF13F0010E4E6E0C0E02010E6F0001D3
:1007B0006ADE010E02010F6F106F000151DE9A0E0A
:1007C000F66E010EF76E95DE4AA07AD0948C82AC5C
:1007D00001D04A82EC0E966E84A401D04A88948E91
:1007E00082AE01D04A84958083A001D04A86EC0E67
:1007F000966E84B415D04AA813D04A984E2C03D0D4
:10080000040E4E6E01D04E06010E02010F6F020E55
:10081000106F000125DEA80EF66E010EF76E69DE80
:10082000958083B016D04AA614D04E50040803E138
:10083000010E4E6E01D04E2A010E02010F6F020E04
:10084000106F00010DDEBA0EF66E010EF76E51DE6E
:100850004A96010E02010F6F020E106F000100DEBA
:10086000010E4E5C110DF350506A4F6E040E4F2472
:10087000016E000E5020036E01C051F0526E4EC04A
:100880000CF21B0E02010D6F000194DE2E0E020110
:100890000E6F0001F8DD52C0EAFF51C0E9FFC8DE6B
:1008A000948C82BC04D04AA202D04A924A90948E80
:1008B00082BE05D04AA403D04A944A904E6A84D797
:1008C0004EC001F025EF13F0E00E926E8990926E0B
:1008D0008992926E8994926E8996926E8998949478
:1008E0008B94EC0E966E8D90966E8D921200ECDFCE
:1008F00002010151FE0A00010FE0030A11E0060A9D
:1009000013E00C0A15E0180A17E0300A19E0600A33
:100910001AE0C00A1CE01ED0E00E926E89801AD048
:10092000E00E926E898216D0E00E926E898412D00B
:10093000E00E926E89860ED0E00E926E89880AD003
:1009400094948B8407D0EC0E966E8D8003D0EC0EC1
:10095000966E8D8212004E6A4E50090852E3FE0ECA
:100960000201016F0001C3DF320E02010F6F0001AF
:100970007DDCFD0E0201016F0001B9DF320E0201C4
:100980000F6F000173DCFB0E0201016F0001AFDF8E
:10099000320E02010F6F000169DCF70E0201016FD8
:1009A0000001A5DF320E02010F6F00015FDCEF0EC8
:1009B0000201016F00019BDF320E02010F6F000187
:1009C00055DCDF0E0201016F000191DF320E0201E2
:1009D0000F6F00014BDCBF0E0201016F000187DFCA
:1009E000320E02010F6F000141DC7F0E0201016F28
:1009F00000017DDF320E02010F6F000137DC4E2A4D
:100A0000ABD714EF05F00C0E02010E6F00013BDDB9
:100A1000010E02010F6F106F000122DD1A0EF66E3B
:100A2000010EF76E66DD97D74FDF040E4E6EFA0E9D
:100A300002010F6F00011ADC4E2EF9D7010E0201E0
:100A40000F6F020E106F00010BDD2A0EF66E010E05
:100A5000F76E4FDD040E4E6EFA0E02010F6F0001AD
:100A600005DC4E2EF9D7320EF66E010EF76E41DD23
:100A7000040E4E6EFA0E02010F6F000136EC01F00B
:100A80004E2EF8D7360EF66E010EF76E32DD040EDE
:100A90004E6EFA0E02010F6F000136EC01F04E2E81
:100AA000F8D7010E02010F6F106F0001D9DC0C0E98
:100AB00002010E6F0001E7DC3A0EF66E010EF76ED2
:100AC00018DD2CEF13F0016A026A006A036A020162
:100AD000045102E1035118E0100E056FD890013760
:100AE0000237003603360451035C02E10351005C17
:100AF00007E30351005ED8A003060451035ED880CB
:100B000001360236052FEAD7000112000101FF511C
:100B1000FA0FD8B07DD0060F00012AEF06F0020EC2
:100B2000EA6EE96AF2CF0CF2F29E000E47EC00F09A
:100B30000A000900F550EE6E0009FBE102010CBF4E
:100B4000F28E010165D0020EEA6EE96AF2CF0CF274
:100B5000F29E000E52EC00F00A000900F550EE6E15
:100B60000009FBE102010CBFF28E010151D0020E1F
:100B7000EA6EE96AF2CF0CF2F29E000E5EEC00F033
:100B80000A000900F550EE6E0009FBE102010CBFFE
:100B9000F28E01013DD0020EEA6EE96AF2CF0CF24C
:100BA000F29E000E69EC00F00A000900F550EE6EAE
:100BB0000009FBE102010CBFF28E010129D0020EF7
:100BC000EA6EE96AF2CF0CF2F29E000E75EC00F0CC
:100BD0000A000900F550EE6E0009FBE102010CBFAE
:100BE000F28E010115D0020EEA6EE96AF2CF0CF224
:100BF000F29E000E7FEC00F00A000900F550EE6E48
:100C00000009FBE102010CBFF28E010101D00101DC
:100C1000010E02010F6F106F000122DC0C0E0201A9
:100C20000E6F000130DCFEC10CF21B0E02010D6FD5
:100C30000001C0DC2E0E02010E6F000124DC200E2C
:100C400002010E6F00011FDC020EEA6EE96AF0DCA1
:100C5000D3EF0EF0E824F76AF7366F0FF66E0C0E3E
:100C6000F7220A00F550FA6E0800F550F96E1E0BD7
:100C7000460B6E0B960BBE0BE60B0900F6CF02F28D
:100C8000F7CF03F2F5CF0EF243EC02F002C2F6FF0B
:100C900003C2F7FF0201012F01D002D00001EDD7FE
:100CA000000112008E0E006E17C201F016C202F093
:100CB000036A015209E102C001F0026A080E005EF7
:100CC000015202E1006A08D0D89001BE04D0023679
:100CD00001360006F9D7019E120013C21AF2020172
:100CE00017511A1B1AAF05D0D894D89013BFD880CB
:100CF0002FD013C21AF216C21BF212511B5F06E06C
:100D00001AAF26D0D850010AD86E22D017C21BF2D3
:100D100013511B5F06E01AAF1BD0D850010AD86EE2
:100D200017D018C21BF214511B5F06E01AAF10D087
:100D3000D850010AD86E0CD019C21BF215511B5F96
:100D400006E01AAF05D0D850010AD86E01D0D8906D
:100D5000000112008E0E006E02011251005E13C2DD
:100D600002F014C201F0028E005209E0D890025243
:100D700002E1015204E002320132002EF7D713AF34
:100D800005D0011E021E012AD8B4022A0001120059
:100D900002011251D8B471D0006E1651D8B46DD082
:100DA000002604E3810E002668E204D07F0E005E78
:100DB00064E363E013C21AF217511A1B138F178FE3
:100DC00015511903F4CF1CF214511803F4CF03F09A
:100DD000F3CF1BF21903F3501C27F4501B23000E12
:100DE000032215511803F3501C27F4501B23000E47
:100DF000026A0322022213511903F3501B27F450F5
:100E00000322000E022213511803F3500326F4505C
:100E10000222000E016A012215511703F3501B270D
:100E2000F4500322000E0222012214511703F35042
:100E30000326F4500222000E012213511703F3502F
:100E40000226F4500122002A01BE05D01B370336CA
:100E5000023601360006000E1BAF0AD0032A02221A
:100E60000122015005E1025003E1035001E1002A93
:100E70001ABF018E1AAF019E04D0006A016A026A8D
:100E8000036A00011200800ED8A202D002011B1BCF
:100E90000201206B216B17C21FF21B511F1B165141
:100EA000D8B4DFD01E6F006E1A51D8B4E3D01E5FE5
:100EB000D8B483D03EE31BC224F2248F1CC223F299
:100EC0001DC222F2216BD8902433233322332133E5
:100ED0001E2FF8D71FAF03D02081E0D020911E91A4
:100EE0002089020EEA6E190EE96EEBD020991FBF21
:100EF0000AD01EA113D02433233322332133002AF6
:100F0000D8B4C7D00BD024BF0CD0D890213722370B
:100F1000233724370006D8B4BCD0F5D7208D6DD048
:100F2000209D17C21FF217AF02D0248FABD0249F91
:100F3000A9D01AC21EF21AC200F016511E5F17C2C3
:100F400024F2248F18C223F219C222F2216BD89006
:100F500024332333223321331E2FF8D71FAF03D07E
:100F600020839CD020931E91208B020EEA6E1D0ED2
:100F7000E96EA7D0209B1FBF0AD01EA113D0243337
:100F8000233322332133002AD8B483D00BD024BF9B
:100F90000CD0D89021372237233724370006D8B415
:100FA00078D0F5D7208F29D0209F1BC21FF21BAF0E
:100FB00002D0248F67D0249F65D01BC224F2248FD7
:100FC0001CC223F21DC222F21FAF04D0249F208531
:100FD00065D02095216B1E91020EEA6E190EE96E06
:100FE00070D01FBF1CD017C21FF21EA106D0243321
:100FF000233322332133002A4CE021AF0BD0222BA4
:1010000009E1232B07E1242B05E124332333223389
:10101000002A3FE020BD84D720BFC6D71CD0800E59
:10102000241B24AF04D03AD01BC21FF20AD017C22F
:101030001FF2245306E1235304E1225302E1006A24
:1010400021D024BF08D0D890213722372337243726
:10105000002EF7D71ED01FAF02D0248F13D0249FAD
:1010600011D01AC200F01BC224F21CC223F21DC20E
:1010700022F208D016C200F017C224F218C223F2DE
:1010800019C222F224C201F023C202F022C203F0EC
:1010900034D0006A016A026A036A2FD0216B221FD2
:1010A000231F241F211F212B05E1222B03E1232BCA
:1010B00001E1242B20B112D720B354D720B589D712
:1010C000B3D7EF50222705E3232B03E1242BD8B419
:1010D0001E81ED52EF50232703E3242BD8B41E8149
:1010E000ED52EF50EFBE01D0800A2427D8B01E8108
:1010F00020B9FCD620BB3ED774D7000112000201F4
:10110000119105C20AF204C209F203C208F202C236
:1011100007F205C215F204C214F203C213F202C2AE
:1011200012F2196B186B176B166B0001D6DD06E314
:10113000020111810851800A086F00010AC215F2EC
:1011400009C214F208C213F207C212F20201196BAB
:10115000186B176B8E0E166F0001BFDD01E217E1F1
:101160000AC215F209C214F208C213F207C212F23F
:10117000F1DD02C017F201C016F294DD03C00EF2D9
:1011800002C00DF201C00CF200C00BF2C7D00AC2BF
:1011900015F209C214F208C213F207C212F2800E4D
:1011A0000201196F960E186F180E176F960E166FB4
:1011B000000193DDD8A0AAD00AC215F209C214F228
:1011C00008C213F207C212F20201196B186B176BF7
:1011D000700E166F0001DCDD03C015F202C014F2C0
:1011E00001C013F200C012F2B5DD02C010F201C05E
:1011F0000FF20AC215F209C214F208C213F207C2B2
:1012000012F20201196B186B176B700E166F00014A
:10121000BFDD03C015F202C014F201C013F200C01A
:1012200012F210C217F20FC216F23CDDD88215C2BC
:1012300019F214C218F213C217F212C216F203C046
:101240001DF202C01CF201C01BF200C01AF21BDE2C
:101250000201156B146B136B8E0E126F03C019F223
:1012600002C018F201C017F200C016F2000190DDB2
:1012700003C00AF202C009F201C008F200C007F27E
:1012800010C217F20FC216F20DDD0201156B146BBE
:10129000136B8E0E126F03C019F202C018F201C058
:1012A00017F200C016F2000173DD03C00EF202C097
:1012B0000DF201C00CF200C00BF20AC215F209C215
:1012C00014F208C213F207C212F244DD02C017F290
:1012D00001C016F2E7DCD8920EC219F20DC218F264
:1012E0000CC217F20BC216F203C01DF202C01CF2B0
:1012F00001C01BF200C01AF2C6DD03C00EF202C02C
:101300000DF201C00CF200C00BF208D00AC20EF2BE
:1013100009C20DF208C20CF207C20BF20AC215F2A2
:1013200009C214F208C213F207C212F213DD02C09E
:1013300017F201C016F2B6DCD8820AC219F209C24D
:1013400018F208C217F207C216F203C01DF202C05B
:101350001CF201C01BF200C01AF295DD03C00AF2B4
:1013600002C009F201C008F200C007F2020111A197
:1013700003D00C51800A0C6F0AC215F209C214F294
:1013800008C213F207C212F2196B186B176B166BB7
:101390000001A3DC3AE0020111A11BD0065319E1C0
:1013A000D8820EC219F20DC218F20CC217F20BC28B
:1013B00016F21D6B1C6B1B6B7F0E1A6F000163DD39
:1013C00003C00EF202C00DF201C00CF200C00BF21D
:1013D000020111B11BD0062D19D0D8920EC219F2FC
:1013E0000DC218F20CC217F20BC216F21D6B1C6B69
:1013F0001B6B7F0E1A6F000146DD03C00EF202C0A8
:101400000DF201C00CF200C00BF2020105C215F290
:1014100004C214F203C213F202C212F2196B186B67
:10142000176B166B000159DC06E102010E6B0D6BA8
:101430000C6B0B6B00010BC200F00CC201F00DC273
:1014400002F00EC203F032EF0AF001C205F200C250
:1014500004F2FFC103F2FEC102F2010E0201066FA7
:1014600000014DD61200EACF09F2E9CF08F20201DD
:101470000239F009046F0427E20F056F320F076F7E
:1014800002510F0B052705270727E90F066F0627CF
:10149000062701390F0B0627072706370737071FCF
:1014A000073701510F0B07270437070E036F0A0E8A
:1014B00006070727FDE305070627FDE304070527C1
:1014C000FDE303070427FDE3020EEA6E030EE96E57
:1014D000070E0815089DE926070EE95CD8B4088DAB
:1014E000EF50006E08E108BD06D008B916D008B765
:1014F00002D0200E03D008870899300E0026EACFCC
:1015000002F2E9CF01F200C00EF2000143EC02F05A
:1015100002C2EAFF01C2E9FF0201EE5008ADDCD7CA
:10152000000154EF0FF00101FE51D8B4B4D0020114
:101530000A6F0251D8A402D00101ADD00A5F07E3BF
:101540007F0E0A27D8A002D00101A5D00AD0810EB3
:101550000A5FD8B002D001019ED0D8A402D0010108
:101560009AD00AC200F0016A026A036A096BFFC1DD
:1015700008F2088F00C207F201C206F2190E0A6FC4
:101580000551065F0DE2010E075F0AE2085F08E2FF
:10159000095F06E2092B082B072B0551062728D0E7
:1015A0000451075F12E2010E085F0FE2095F0DE2CE
:1015B000092B082B045107270551062719E3072B90
:1015C00017E1082B15E1092B13D003518009085F9F
:1015D0000EE2010E095F0BE2092B03518009082777
:1015E00004510727E9E3082BE7E1092BE5D703803E
:1015F0000A2F01D00BD0D8900637073708370937A4
:10160000D8900336023601360B37BAD70BA106D075
:10161000D8900132023203320B3304D0002E02D0B4
:10162000010139D00BBF1ED0D890063707370837D5
:1016300009370551065F07E2010E075F04E2085F04
:1016400002E2095F1DE30451075F05E2010E085F36
:1016500002E2095F15E303518009085F03E2010E0E
:10166000095F0EE3032A0CE1022A0AE1012A08E1DC
:10167000002AD8A402D001010ED001320232033276
:10168000FFC10AF203510A1B0AAF02D0018E08D033
:10169000019E06D00101006A016A026A036A020122
:1016A000000182EF0FF0FE0E506EFD0E516EFB0E2C
:1016B000526EF70E536E546E556EFE0E566EFD0E44
:1016C000576EFE0E586EFD0E596E5A6E5B6E5C6E56
:1016D000EF0E5D6EF70E5E6EFB0E5F6E606F616FFC
:1016E000FE0E626FFD0E636FFB0E646FF70E656F8B
:1016F0006669FE0E676FFD0E686FFB0E696FF70E71
:101700006A6F6B6F6C6FFE0E6D6FFD0E6E6FFE0E6F
:101710006F6FFD0E706F716F726F736FEF0E746F7E
:10172000F70E756FFB0E766F776F786FFE0E796F21
:10173000FD0E7A6FFB0E7B6FF70E7C6FFE0E7D6FDA
:10174000FD0E7E6FFB0E7F6FEF0E806F816FFB0EC5
:10175000826FF70E836F846FFE0E856FFD0E866FAE
:10176000FB0E876FEF0E886F896FF70E8A6FFB0E87
:101770008B6FFE0E8C6F8D6FFD0E8E6FFB0E8F6F5D
:10178000EF0E906F9169926FF70E936FFB0E946F4F
:10179000FE0E956FF70E966F9769986FFB0E996F17
:1017A000FD0E9A6F9B6FFB0E9C6FFD0E9D6F9E6FE3
:1017B000FE0E9F6FA06FBF0EA16FEF0EA26FDF0E28
:1017C000A36FEF0EA46FFB0EA56FF70EA66FFD0EB5
:1017D000A76FFB0EA86FFD0EA96FFB0EAA6FFE0E82
:1017E000AB6FFD0EAC6FFE0EAD6FDF0EAE6FFE0E7B
:1017F000AF6FB06FFB0EB16FB269F70EB36FEF0E44
:10180000B46F7F0EB56FB669FD0EB76FB869FB0E8A
:10181000B96FF70EBA6FBB69EF0EBC6FBD69DF0E13
:10182000BE6FBF0EBF6FFB0EC06FC169DF0EC26F10
:10183000C369BF0EC46FFE0EC56FFD0EC66FFB0EF3
:10184000C76FC869C96FCA69F70ECB6FEF0ECC6F4F
:101850007F0ECD6FCE69FD0ECF6FD069FB0ED16FBD
:10186000F70ED26FD369EF0ED46FD569D66FFB0E2A
:10187000D76FFD0ED86FD969EF0EDA6FFB0EDB6FF5
:10188000FD0EDC6FDD69EF0EDE6FFB0EDF6FFD0E10
:10189000E06FE169EF0EE26FFB0EE36FFD0EE46FA8
:1018A000FB0EE56FE66FF70EE76FEF0EE86FE96F7F
:1018B000F70EEA6FFB0EEB6FFD0EEC6FFE0EED6F99
:1018C000EE6FFD0EEF6FFB0EF06FF16FF269FD0E24
:1018D000F36FF46FFB0EF56FF66FF70EF76FEF0E09
:1018E000F86FF96FF70EFA6FFB0EFB6FFD0EFC6FD2
:1018F000FE0EFD6FFE6FFD0EFF6FFB0E0101006F10
:10190000FD0E016F0269FE0E036F046FFD0E056F81
:101910000669FB0E076FFE0E086FFD0E096FFB0ECA
:101920000A6FF70E0B6FFB0E0C6FFE0E0D6FFD0EA8
:101930000E6FFB0E0F6FF70E106FFB0E116FFD0E8B
:10194000126FFE0E136FFD0E146FBF0E156F166B28
:10195000176B080E186F196F1A6F040E1B6F080EA5
:101960001C6F040E1D6F080E1E6F1F6F206F040E7C
:10197000216F080E226F040E236F080E246F256F4F
:10198000266F040E276F080E286F040E296F080EAD
:101990002A6F2B6F2C6F040E2D6F2E6F080E2F6F7A
:1019A000306F316F040E326F080E336F040E346FD8
:1019B000080E356F366F376F040E386F080E396FAB
:1019C000040E3A6F080E3B6F3C6F3D6F040E3E6F86
:1019D000080E3F6F040E406F080E416F426F436F59
:1019E000040E446F080E456F466F040E476F486F34
:1019F000496F4A6F4B6F020E4C6F080E4D6F4E6F62
:101A0000040E4F6F506F516F526F020E536F080EDE
:101A1000546F556F566F040E576F586F080E596FFD
:101A20005A6F5B6F5C6F040E5D6F5E6F080E5F6FC9
:101A3000606F616F626F040E636F646F080E656F95
:101A4000666F676F040E686F080E696F6A6F6B6F61
:101A50006C6F6D6F6E6F6F6F706F716F726F736F92
:101A6000746F756F766F776F786F796F100E7A6F0E
:101A70007B6F080E7C6F040E7D6F080E7E6F7F6F8C
:101A8000100E806F816F020E826F040E836F080E3E
:101A9000846F100E856F866F080E876F040E886F37
:101AA000080E896F8A6F100E8B6F8C6F040E8D6F0E
:101AB0008E6F100E8F6F080E906F916F100E926FD9
:101AC000936F080E946F040E956F080E966F976FC4
:101AD000100E986F996F040E9A6F9B6F080E9C6F93
:101AE000100E9D6F9E6F040E9F6F080EA06F100E5C
:101AF000A16FA26F040EA36F080EA46F100EA56F46
:101B0000A66F040EA76F080EA86F100EA96FAA6F1C
:101B1000040EAB6F080EAC6FAD6FAE6FAF6FB06FF2
:101B2000B16FB26FB36FB46FB56FB66FB76FB86F99
:101B3000B96F100EBA6FBB6F040EBC6F080EBD6F8D
:101B4000BE6FBF6FC06FC16FC26FC36FC46FC56F11
:101B5000C66FC76FC86FC96F100ECA6FCB6F040E08
:101B6000CC6F080ECD6FCE6FCF6FD06FD16F100ED0
:101B7000D26FD36F080ED46FD56FD66F100ED76F9C
:101B8000D86F080ED96FDA6FDB6FDC6F040EDD6F74
:101B9000DE6BDF6B2D0EE06F340EE16FE26F2F0E08
:101BA000E36FEC6BE56BE46BEE6BED6B010EEC6FD2
:101BB000EC51030823E3ECC1EFF1EF530EE0010E0B
:101BC000EF5D036AE00FE96E010E0320EA6EEF504D
:101BD000ED27000EEE23EF07F0D7D890EC35036A1F
:101BE000E40FE96E010E0320EA6EEEC1ECFFED5248
:101BF000EDC1EFFFEE6BED6BEC2BDAD7EC6BF16B1D
:101C0000F06B4F50110DF350FF6BFE6F100EFE2561
:101C1000016E000EFF21036E0150040FE96E000EED
:101C20000320EA6EEFCFFEF1EA0E0201026F600EB2
:101C3000016F046BFEC103F2000163EC05F00101CA
:101C40000134F26F0234F36FF237F337FC0EF21700
:101C5000036A4F50E00FE96E010E0320EA6EEF5069
:101C6000EC5DD8B0CDD0F46BD8904F34036AE40F5C
:101C7000E96E010E0320EA6EECCFFFF1ED52EFCFDB
:101C8000FEF1EC51FE27000EFF23500EFE25E96EFB
:101C9000000EFF21EA6EEFCF00F200C201F2000158
:101CA00077EC04F0D8904F34036AE40FE96E010E2C
:101CB0000320EA6EECCFFFF1ED52EFCFFEF1010110
:101CC000EC51FE27000EFF23180EFE25E96E010ED3
:101CD000FF21EA6EEFCF00F20201F3C102F2F2C17E
:101CE00001F2046B00C203F2000163EC05F002C0D4
:101CF000F6F101C0F5F10101F76BF7511308D8A017
:101D000079D0936881CFF8F1F75104081EE2F751BA
:101D100009081BE3D8904F34036AE40FE96E010E03
:101D20000320EA6EECCFFFF1ED52EFCFFEF1EC5164
:101D3000FE27000EFF23500EFE25E96E000EFF2148
:101D4000EA6EEF50F85D01E1F42BF6C102F2F5C145
:101D500001F20201046B140E036F000163EC05F045
:101D600002C0FFF101C0FEF102C000F20201002B2F
:101D70000007D8B406D00F69000136EC01F002016B
:101D8000F7D7FEC10FF2000136EC01F00101F75167
:101D90000A082EE1000164EC04F0ECC1FEF1F4C18C
:101DA000FFF186EF05F0010E02010F6F020E106FBA
:101DB000000130EC02F0460EF66E010EF76E0B0ECF
:101DC0000201016F00013DEC06F0F8C10CF21B0EA0
:101DD00002010D6F0001DAEC02F0530EF66E010EF7
:101DE000F76E040E0201016F00013DEC06F00101E7
:101DF000F72B83D7F451F027000EF123EC2B28D7D3
:101E0000F1C102F2F0C101F20201046B050E036F91
:101E1000000163EC05F002C017F201C016F20001E8
:101E200052EC06F003C0FCF102C0FBF101C0FAF174
:101E300000C0F9F1010E02010F6F106F000130ECCC
:101E400002F0FCC101F2FBC100F2FAC1FFF1F9C1DD
:101E5000FEF125EC0AF003C015F202C014F201C035
:101E600013F200C012F2AAEC06F002C0FFF101C0AA
:101E7000FEF1036A4F50E00FE96E010E0320EA6E97
:101E8000EFCF00F2580EF66E010EF76E0A0E020149
:101E9000016F00013DEC06F0100EE96EFFC102F289
:101EA000FEC101F233EF0AF02F0E02010E6F0001A6
:101EB00043EC02F000C20CF21B0E02010D6F000198
:101EC000DAEC02F0036A4F50E00FE96E010E0320D6
:101ED000EA6EEF500201176B166F000152EC06F02C
:101EE000FCC101F2FBC100F2FAC1FFF1F9C1FEF140
:101EF00003C005F202C004F201C003F200C002F206
:101F000093EF0AF003C0FCF102C0FBF101C0FAF14B
:101F100000C0F9F1FCC115F2FBC114F2FAC113F2D1
:101F2000F9C112F20201196B186B480E176F850E7A
:101F3000166F0001C8EC06F003C0FCF102C0FBF113
:101F400001C0FAF100C0F9F1FCC101F2FBC100F2DD
:101F5000FAC1FFF1F9C1FEF125EC0AF003C0FCF172
:101F600002C0FBF101C0FAF100C0F9F1FCC115F2A9
:101F7000FBC114F2FAC113F2F9C112F2AAEC06F095
:101F800001C0FDF1010E02010F6F020E106F000182
:101F900030EC02F06A0EF66E010EF76E0D0E0201C5
:101FA000016F00013DEC06F0FDC10CF21B0E0201B9
:101FB0000D6F0001DAEC02F0250E02010E6F000138
:101FC00043EC02F0200E0101FE6FFA0E02010F6FCA
:101FD000000136EC01F00101FE2FF7D7FDC101F041
:101FE000000132EF13F0516A526A536A546A556A1B
:101FF000566A576A586A596A5A6A5B6A5C6A5D6AC5
:102000005E6A5F6A606B616B626B636B646B656B6E
:10201000666B0A0E676F516A51500908D8A0EDD05F
:10202000F2CF6AF0F29E51C0A9FFA69CA69EA680A0
:10203000A8506ABFF28E526E52504F5CD8A0DBD0CF
:10204000010E02010F6F106F000130EC02F0010E63
:1020500051246A6F7C0EF66E010EF76E120E0201AD
:10206000016F00013DEC06F06AC00CF21B0E02018C
:102070000D6F0001DAEC02F0900EF66E010EF76EB5
:10208000090E0201016F00013DEC06F00C0E6A6FB3
:10209000FA0E02010F6F000136EC01F06A2FF8D73B
:1020A00051C068F0685109082BE3036A6851530F67
:1020B000E96E000E0320EA6EF2CF6CF0F29E68C06B
:1020C000A9FFA69CA69EA680A8506CBFF28EEF6EBC
:1020D000036A68515D0FE96E000E0320EA6E6751D6
:1020E00068256C6FF2CF6DF0F29E6CC0A9FFA69CC4
:1020F000A69EA680A8506DBFF28EEF6E682BD2D739
:10210000010E5124696F6951090845E3010E695DAB
:10211000036A530FE96E000E0320EA6EEFCF6AF0F8
:10212000F250006EF29E69C0A9FF6AC0A8FFA69C8B
:10213000A69EA6840F01550EA76EAA0EA76EA682B4
:10214000A6B2FED7A6940050F2120001675169258D
:102150006A6F010E695D036A5D0FE96E000E032070
:10216000EA6EEFCF6BF0F250006EF29E6AC0A9FFEC
:102170006BC0A8FFA69CA69EA6840F01550EA76E55
:10218000AA0EA76EA682A6B2FED7A6940050F2129F
:102190000001692BB8D7F250006EF29E51C0A9FF22
:1021A0004FC0A8FFA69CA69EA6840F01550EA76E41
:1021B000AA0EA76EA682A6B2FED7A6940050F2126F
:1021C0000001675151246A6FF250006EF29E6AC09E
:1021D000A9FF50C0A8FFA69CA69EA6840F01550E7D
:1021E000A76EAA0EA76EA682A6B2FED7A69400502E
:1021F000F212000102D0512A0FD73BEF13F0010E6B
:102200004E6E0C0E02010E6F000143EC02F04AA06C
:10221000BDD0EC0E966E84A401D04A88948E82AE16
:1022200001D04A84958083A001D04A86EC0E966E38
:1022300084B417D04AA815D04A984E2C03D00A0E61
:102240004E6E01D04E06010E02010F6F020E106F8E
:10225000000130EC02F0CC0EF66E010EF76E79EC58
:1022600002F0958083B018D04AA616D04E500A08C6
:1022700003E1010E4E6E01D04E2A010E02010F6FD6
:10228000020E106F000130EC02F0DE0EF66E010E51
:10229000F76E79EC02F04A96010E4E5C0A0F516E11
:1022A000F2CF52F0F29E51C0A9FFA69CA69EA68036
:1022B000A85052BEF28E4F6E010E4E5C516EF2CFA0
:1022C00053F0F29E51C0A9FFA69CA69EA680A850DE
:1022D00053BEF28E506E010E02010F6F106F00019F
:1022E00030EC02F04F50110DF350526A516E040E53
:1022F0005124016E000E5220036E01C053F0546E43
:102300004EC00CF21B0E02010D6F0001DAEC02F060
:102310002E0E02010E6F000143EC02F054C0EAFFE2
:1023200053C0E9FF18EC03F0F50EF66E010EF76EE0
:102330000B0E0201016F00013DEC06F0010E0201DF
:102340000F6F020E106F000130EC02F0020EF66EFD
:10235000020EF76E0B0E0201016F00013DEC06F05C
:1023600050C00CF21B0E02010D6F0001DAEC02F0FE
:10237000250E02010E6F000143EC02F0948E82BE26
:1023800004D04AA402D04A944A9041D73DEF13F0BA
:10239000F86AD09E486A496A4A804A924A944A96A4
:1023A0004A98C150C00B0F09C16E070EB46EEA6A9D
:1023B000040EE96EF2CF4EF0F29E000E0CEC00F02F
:1023C0000A000900F550EE6E0009FBE14EBEF28EE8
:1023D000640E146EEA6A150EE96EF2CF4EF0F29EAC
:1023E000000E1AEC00F00A000900F550EE6E00092C
:1023F000FBE14EBEF28E780E256EEA6A260EE96E7D
:10240000F2CF4EF0F29E000E28EC00F00A00090018
:10241000F550EE6E0009FBE14EBEF28E780E366E80
:10242000EA6A370EE96EF2CF4EF0F29E000E37ECFC
:1024300000F00A000900F550EE6E0009FBE14EBE07
:10244000F28E460E476E4B6AF2CF4EF0F29EA96AAC
:10245000A69CA69EA680A8504EBEF28E4B6E4B3C0C
:10246000E7D04C6A4C5009081CE3140ED8804C5439
:102470004E6EF250006EF29E4CC0A9FF4EC0A8FFF7
:10248000A69CA69EA6840F01550EA76EAA0EA76E47
:10249000A682A6B2FED7A6940050F2124C2A0001E2
:1024A000E1D7F250006EF29E0A0EA96EA86AA69CB1
:1024B000A69EA6840F01550EA76EAA0EA76EA68231
:1024C000A6B2FED7A6940050F212F2CF00F0F29E10
:1024D0000B0EA96E010EA86EA69CA69EA684550E94
:1024E000A76EAA0EA76EA682A6B2FED7A69400502B
:1024F000F212F2CF00F0F29E0C0EA96E020EA86E40
:10250000A69CA69EA684550EA76EAA0EA76EA682AE
:10251000A6B2FED7A6940050F212F2CF00F0F29EBF
:102520000D0EA96EA86AA69CA69EA684550EA76E3F
:10253000AA0EA76EA682A6B2FED7A6940050F212EB
:10254000F2CF00F0F29E0E0EA96E010EA86EA69CB0
:10255000A69EA684550EA76EAA0EA76EA682A6B248
:10256000FED7A6940050F212F2CF00F0F29E0F0EAA
:10257000A96E020EA86EA69CA69EA684550EA76EF6
:10258000AA0EA76EA682A6B2FED7A6940050F2129B
:10259000F2CF00F0F29E100EA96E020EA86EA69C5D
:1025A000A69EA684550EA76EAA0EA76EA682A6B2F8
:1025B000FED7A6940050F212F2CF00F0F29E110E58
:1025C000A96EA86AA69CA69EA684550EA76EAA0E02
:1025D000A76EA682A6B2FED7A6940050F212F2CF42
:1025E00000F0F29E120EA96E010EA86EA69CA69E89
:1025F000A684550EA76EAA0EA76EA682A6B2FED717
:10260000A6940050F212F2CF00F0F29E130EA96EC3
:10261000020EA86EA69CA69EA684550EA76EAA0EB4
:10262000A76EA682A6B2FED7A6940050F2120001B1
:10263000EDEF01F089EF02F02AEF03F001C048F05E
:102640004A80482C19D0D2EF03F001C049F04A80EB
:10265000495211E003EF05F0010E495C4E6E4F6EDA
:1026600053EF0BF001C04DF0010E495C4E6E4DC0B2
:102670004FF0506EB8D402D0C2D54A80DDD70300E7
:020000040030CA
:0E00000004CC380E0087A1000FC00FE00F40A7
:00000001FF
;PIC18F4550
;CRC=0A61  CREATED="15-dez-17 01:00"
